{
  "transactions": [
    {
      "hash": "0xd4f9f526ca5c9e45ed8acdb42c05fcc4e4932148d604dd5c2b36507cd0b3134a",
      "transactionType": "CALL",
      "contractName": null,
      "contractAddress": "0x1b048c7323c7c7fe910a5f0e08b36b0c715e8947",
      "function": "resolveMatch(uint256,uint8)",
      "arguments": [
        "34",
        "1"
      ],
      "transaction": {
        "from": "0x6e0056fe681e087160bb40db0ae3419ee6c2ece4",
        "to": "0x1b048c7323c7c7fe910a5f0e08b36b0c715e8947",
        "gas": "0x1e5a6",
        "value": "0x0",
        "input": "0x20d54ecf00000000000000000000000000000000000000000000000000000000000000220000000000000000000000000000000000000000000000000000000000000001",
        "nonce": "0x1a",
        "chainId": "0x2105"
      },
      "additionalContracts": [],
      "isFixedGasLimit": false
    }
  ],
  "receipts": [
    {
      "status": "0x1",
      "cumulativeGasUsed": "0x125890a",
      "logs": [
        {
          "address": "0x1b048c7323c7c7fe910a5f0e08b36b0c715e8947",
          "topics": [
            "0xeb7ecc3aa4dd407c7207677a2cbf861441d5c5e6c0dc70ad9692a980385c20d6",
            "0x0000000000000000000000000000000000000000000000000000000000000022"
          ],
          "data": "0x",
          "blockHash": "0x95b068aa40fa7a334c7c71642089fa747c3caff832e96a72721fa3c1d36b0f85",
          "blockNumber": "0x2733d8b",
          "blockTimestamp": "0x6970d7f9",
          "transactionHash": "0xd4f9f526ca5c9e45ed8acdb42c05fcc4e4932148d604dd5c2b36507cd0b3134a",
          "transactionIndex": "0x40",
          "logIndex": "0x195",
          "removed": false
        },
        {
          "address": "0x1b048c7323c7c7fe910a5f0e08b36b0c715e8947",
          "topics": [
            "0xfe06457883c237bde432927009a0bcdd42b498d00466d2677282a4c05b5a6e1f",
            "0x0000000000000000000000000000000000000000000000000000000000000022"
          ],
          "data": "0x000000000000000000000000000000000000000000000000000000000000000100000000000000000000000000000000000000000000000000071afd498d000000000000000000000000000000000000000000000000000000000000000000000000000000000000000000000000000000000000000000000000000000000000",
          "blockHash": "0x95b068aa40fa7a334c7c71642089fa747c3caff832e96a72721fa3c1d36b0f85",
          "blockNumber": "0x2733d8b",
          "blockTimestamp": "0x6970d7f9",
          "transactionHash": "0xd4f9f526ca5c9e45ed8acdb42c05fcc4e4932148d604dd5c2b36507cd0b3134a",
          "transactionIndex": "0x40",
          "logIndex": "0x196",
          "removed": false
        }
      ],
      "logsBloom": "0x00000000000000000000000000000000000000000000000000000000000000000000000000000000000200000000000000000000000000000000000000000000000000002200000008000000000000000000000000200010000000000000000000000000000000000000000000000000000000000000000000000000000000000000020000000000000100000000000000000000020000000000004000000000000000000000000000000000000080000000000000000000000000000000000000000000000000000000000000000000000000000000000000000000000000080000000000000000000000000000000000000000000000000000000000000000",
      "type": "0x2",
      "transactionHash": "0xd4f9f526ca5c9e45ed8acdb42c05fcc4e4932148d604dd5c2b36507cd0b3134a",
      "transactionIndex": "0x40",
      "blockHash": "0x95b068aa40fa7a334c7c71642089fa747c3caff832e96a72721fa3c1d36b0f85",
      "blockNumber": "0x2733d8b",
      "gasUsed": "0x14c12",
      "effectiveGasPrice": "0x51c7f3",
      "blobGasUsed": "0x7ef4",
      "from": "0x6e0056fe681e087160bb40db0ae3419ee6c2ece4",
      "to": "0x1b048c7323c7c7fe910a5f0e08b36b0c715e8947",
      "contractAddress": null,
      "daFootprintGasScalar": "0x145",
      "l1BaseFeeScalar": "0x8dd",
      "l1BlobBaseFee": "0x8c6d33",
      "l1BlobBaseFeeScalar": "0x101c12",
      "l1Fee": "0x5a661443",
      "l1GasPrice": "0x8f2c2ab",
      "l1GasUsed": "0x640"
    }
  ],
  "libraries": [],
  "pending": [],
  "returns": {},
  "timestamp": 1769003000744,
  "chain": 8453,
  "commit": "836866e"
}