{
  "transactions": [
    {
      "hash": "0xb4d7fe2cef9fe7513936939791864a029712aca98042d324e54533c16873addb",
      "transactionType": "CALL",
      "contractName": null,
      "contractAddress": "0x1b048c7323c7c7fe910a5f0e08b36b0c715e8947",
      "function": "batchResolveMatches(uint256[],uint8[])",
      "arguments": [
        "[4, 5, 17, 18]",
        "[2, 1, 2, 3]"
      ],
      "transaction": {
        "from": "0x6e0056fe681e087160bb40db0ae3419ee6c2ece4",
        "to": "0x1b048c7323c7c7fe910a5f0e08b36b0c715e8947",
        "gas": "0x67957",
        "value": "0x0",
        "input": "0x6ce82800000000000000000000000000000000000000000000000000000000000000004000000000000000000000000000000000000000000000000000000000000000e00000000000000000000000000000000000000000000000000000000000000004000000000000000000000000000000000000000000000000000000000000000400000000000000000000000000000000000000000000000000000000000000050000000000000000000000000000000000000000000000000000000000000011000000000000000000000000000000000000000000000000000000000000001200000000000000000000000000000000000000000000000000000000000000040000000000000000000000000000000000000000000000000000000000000002000000000000000000000000000000000000000000000000000000000000000100000000000000000000000000000000000000000000000000000000000000020000000000000000000000000000000000000000000000000000000000000003",
        "nonce": "0x12",
        "chainId": "0x2105"
      },
      "additionalContracts": [],
      "isFixedGasLimit": false
    }
  ],
  "receipts": [
    {
      "status": "0x1",
      "cumulativeGasUsed": "0x29cfea9",
      "logs": [
        {
          "address": "0x1b048c7323c7c7fe910a5f0e08b36b0c715e8947",
          "topics": [
            "0xeb7ecc3aa4dd407c7207677a2cbf861441d5c5e6c0dc70ad9692a980385c20d6",
            "0x0000000000000000000000000000000000000000000000000000000000000004"
          ],
          "data": "0x",
          "blockHash": "0x96a511f73e505eaa479c4d59c09342b4451d36ae27b8cdab6ed3d1ca97bf05c8",
          "blockNumber": "0x26fba34",
          "blockTimestamp": "0x6969d14b",
          "transactionHash": "0xb4d7fe2cef9fe7513936939791864a029712aca98042d324e54533c16873addb",
          "transactionIndex": "0x37",
          "logIndex": "0x352",
          "removed": false
        },
        {
          "address": "0x1b048c7323c7c7fe910a5f0e08b36b0c715e8947",
          "topics": [
            "0xfe06457883c237bde432927009a0bcdd42b498d00466d2677282a4c05b5a6e1f",
            "0x0000000000000000000000000000000000000000000000000000000000000004"
          ],
          "data": "0x0000000000000000000000000000000000000000000000000000000000000002000000000000000000000000000000000000000000000000000110d9316ec00000000000000000000000000000000000000000000000000000000000000000000000000000000000000000000000000000000000000000000000000000000000",
          "blockHash": "0x96a511f73e505eaa479c4d59c09342b4451d36ae27b8cdab6ed3d1ca97bf05c8",
          "blockNumber": "0x26fba34",
          "blockTimestamp": "0x6969d14b",
          "transactionHash": "0xb4d7fe2cef9fe7513936939791864a029712aca98042d324e54533c16873addb",
          "transactionIndex": "0x37",
          "logIndex": "0x353",
          "removed": false
        },
        {
          "address": "0x1b048c7323c7c7fe910a5f0e08b36b0c715e8947",
          "topics": [
            "0xeb7ecc3aa4dd407c7207677a2cbf861441d5c5e6c0dc70ad9692a980385c20d6",
            "0x0000000000000000000000000000000000000000000000000000000000000005"
          ],
          "data": "0x",
          "blockHash": "0x96a511f73e505eaa479c4d59c09342b4451d36ae27b8cdab6ed3d1ca97bf05c8",
          "blockNumber": "0x26fba34",
          "blockTimestamp": "0x6969d14b",
          "transactionHash": "0xb4d7fe2cef9fe7513936939791864a029712aca98042d324e54533c16873addb",
          "transactionIndex": "0x37",
          "logIndex": "0x354",
          "removed": false
        },
        {
          "address": "0x1b048c7323c7c7fe910a5f0e08b36b0c715e8947",
          "topics": [
            "0xfe06457883c237bde432927009a0bcdd42b498d00466d2677282a4c05b5a6e1f",
            "0x0000000000000000000000000000000000000000000000000000000000000005"
          ],
          "data": "0x000000000000000000000000000000000000000000000000000000000000000100000000000000000000000000000000000000000000000000016bcc41e9000000000000000000000000000000000000000000000000000000000000000000000000000000000000000000000000000000000000000000000000000000000000",
          "blockHash": "0x96a511f73e505eaa479c4d59c09342b4451d36ae27b8cdab6ed3d1ca97bf05c8",
          "blockNumber": "0x26fba34",
          "blockTimestamp": "0x6969d14b",
          "transactionHash": "0xb4d7fe2cef9fe7513936939791864a029712aca98042d324e54533c16873addb",
          "transactionIndex": "0x37",
          "logIndex": "0x355",
          "removed": false
        },
        {
          "address": "0x1b048c7323c7c7fe910a5f0e08b36b0c715e8947",
          "topics": [
            "0xeb7ecc3aa4dd407c7207677a2cbf861441d5c5e6c0dc70ad9692a980385c20d6",
            "0x0000000000000000000000000000000000000000000000000000000000000011"
          ],
          "data": "0x",
          "blockHash": "0x96a511f73e505eaa479c4d59c09342b4451d36ae27b8cdab6ed3d1ca97bf05c8",
          "blockNumber": "0x26fba34",
          "blockTimestamp": "0x6969d14b",
          "transactionHash": "0xb4d7fe2cef9fe7513936939791864a029712aca98042d324e54533c16873addb",
          "transactionIndex": "0x37",
          "logIndex": "0x356",
          "removed": false
        },
        {
          "address": "0x1b048c7323c7c7fe910a5f0e08b36b0c715e8947",
          "topics": [
            "0xfe06457883c237bde432927009a0bcdd42b498d00466d2677282a4c05b5a6e1f",
            "0x0000000000000000000000000000000000000000000000000000000000000011"
          ],
          "data": "0x000000000000000000000000000000000000000000000000000000000000000200000000000000000000000000000000000000000000000000005af3107a400000000000000000000000000000000000000000000000000000000000000000000000000000000000000000000000000000000000000000000000000000000000",
          "blockHash": "0x96a511f73e505eaa479c4d59c09342b4451d36ae27b8cdab6ed3d1ca97bf05c8",
          "blockNumber": "0x26fba34",
          "blockTimestamp": "0x6969d14b",
          "transactionHash": "0xb4d7fe2cef9fe7513936939791864a029712aca98042d324e54533c16873addb",
          "transactionIndex": "0x37",
          "logIndex": "0x357",
          "removed": false
        },
        {
          "address": "0x1b048c7323c7c7fe910a5f0e08b36b0c715e8947",
          "topics": [
            "0xeb7ecc3aa4dd407c7207677a2cbf861441d5c5e6c0dc70ad9692a980385c20d6",
            "0x0000000000000000000000000000000000000000000000000000000000000012"
          ],
          "data": "0x",
          "blockHash": "0x96a511f73e505eaa479c4d59c09342b4451d36ae27b8cdab6ed3d1ca97bf05c8",
          "blockNumber": "0x26fba34",
          "blockTimestamp": "0x6969d14b",
          "transactionHash": "0xb4d7fe2cef9fe7513936939791864a029712aca98042d324e54533c16873addb",
          "transactionIndex": "0x37",
          "logIndex": "0x358",
          "removed": false
        },
        {
          "address": "0x1b048c7323c7c7fe910a5f0e08b36b0c715e8947",
          "topics": [
            "0xfe06457883c237bde432927009a0bcdd42b498d00466d2677282a4c05b5a6e1f",
            "0x0000000000000000000000000000000000000000000000000000000000000012"
          ],
          "data": "0x0000000000000000000000000000000000000000000000000000000000000003000000000000000000000000000000000000000000000000000110d9316ec00000000000000000000000000000000000000000000000000000005af3107a4000000000000000000000000000000000000000000000000000000002ba7def3000",
          "blockHash": "0x96a511f73e505eaa479c4d59c09342b4451d36ae27b8cdab6ed3d1ca97bf05c8",
          "blockNumber": "0x26fba34",
          "blockTimestamp": "0x6969d14b",
          "transactionHash": "0xb4d7fe2cef9fe7513936939791864a029712aca98042d324e54533c16873addb",
          "transactionIndex": "0x37",
          "logIndex": "0x359",
          "removed": false
        },
        {
          "address": "0x1b048c7323c7c7fe910a5f0e08b36b0c715e8947",
          "topics": [
            "0xfe29ef8c382ba6d8aaf9b1879ccd92e06b83538a1540115f81a9ce50555b6b56"
          ],
          "data": "0x000000000000000000000000000000000000000000000000000000000000004000000000000000000000000000000000000000000000000000000000000000e00000000000000000000000000000000000000000000000000000000000000004000000000000000000000000000000000000000000000000000000000000000400000000000000000000000000000000000000000000000000000000000000050000000000000000000000000000000000000000000000000000000000000011000000000000000000000000000000000000000000000000000000000000001200000000000000000000000000000000000000000000000000000000000000040000000000000000000000000000000000000000000000000000000000000002000000000000000000000000000000000000000000000000000000000000000100000000000000000000000000000000000000000000000000000000000000020000000000000000000000000000000000000000000000000000000000000003",
          "blockHash": "0x96a511f73e505eaa479c4d59c09342b4451d36ae27b8cdab6ed3d1ca97bf05c8",
          "blockNumber": "0x26fba34",
          "blockTimestamp": "0x6969d14b",
          "transactionHash": "0xb4d7fe2cef9fe7513936939791864a029712aca98042d324e54533c16873addb",
          "transactionIndex": "0x37",
          "logIndex": "0x35a",
          "removed": false
        }
      ],
      "logsBloom": "0x00000000000000000000000000000000000000000000000000000000000000000000000000000000000200000000000000000000000000000000000000000000000010002200000008000000000002000000000000201010000000000000000008000000000000000000000000000000000000004000800000000000000000000000000000000000000100000000041000000800020000000000000000000000000000000000000000000000000080000000000000000040002000000400000000001000000000000400000000000000000000008000000000000000000000000000000000000000000000000000000000000000000000000000000000000000",
      "type": "0x2",
      "transactionHash": "0xb4d7fe2cef9fe7513936939791864a029712aca98042d324e54533c16873addb",
      "transactionIndex": "0x37",
      "blockHash": "0x96a511f73e505eaa479c4d59c09342b4451d36ae27b8cdab6ed3d1ca97bf05c8",
      "blockNumber": "0x26fba34",
      "gasUsed": "0x46d3a",
      "effectiveGasPrice": "0x62e2bc",
      "blobGasUsed": "0x8039",
      "from": "0x6e0056fe681e087160bb40db0ae3419ee6c2ece4",
      "to": "0x1b048c7323c7c7fe910a5f0e08b36b0c715e8947",
      "contractAddress": null,
      "daFootprintGasScalar": "0x145",
      "l1BaseFeeScalar": "0x8dd",
      "l1BlobBaseFee": "0x1a8417",
      "l1BlobBaseFeeScalar": "0x101c12",
      "l1Fee": "0x1bad0217",
      "l1GasPrice": "0x1e296e7",
      "l1GasUsed": "0x654"
    }
  ],
  "libraries": [],
  "pending": [],
  "returns": {},
  "timestamp": 1768542537909,
  "chain": 8453,
  "commit": "836866e"
}