{
  "transactions": [
    {
      "hash": "0xa383b73bffc9c595ca8e726f28578a660cc1528f469050bd636fd5bd2497961e",
      "transactionType": "CALL",
      "contractName": null,
      "contractAddress": "0x1b048c7323c7c7fe910a5f0e08b36b0c715e8947",
      "function": "cancelMatch(uint256,string)",
      "arguments": [
        "11",
        "Duplicate match"
      ],
      "transaction": {
        "from": "0x6e0056fe681e087160bb40db0ae3419ee6c2ece4",
        "to": "0x1b048c7323c7c7fe910a5f0e08b36b0c715e8947",
        "gas": "0x1317e",
        "value": "0x0",
        "input": "0xaa079eb0000000000000000000000000000000000000000000000000000000000000000b0000000000000000000000000000000000000000000000000000000000000040000000000000000000000000000000000000000000000000000000000000000f4475706c6963617465206d617463680000000000000000000000000000000000",
        "nonce": "0x11",
        "chainId": "0x2105"
      },
      "additionalContracts": [],
      "isFixedGasLimit": false
    }
  ],
  "receipts": [
    {
      "status": "0x1",
      "cumulativeGasUsed": "0x35cf461",
      "logs": [
        {
          "address": "0x1b048c7323c7c7fe910a5f0e08b36b0c715e8947",
          "topics": [
            "0xbe9561483b1664685b575e72966584b8b66b253bd4f2e55e045e00db8fc134af",
            "0x000000000000000000000000000000000000000000000000000000000000000b"
          ],
          "data": "0x0000000000000000000000000000000000000000000000000000000000000020000000000000000000000000000000000000000000000000000000000000000f4475706c6963617465206d617463680000000000000000000000000000000000",
          "blockHash": "0xe2da638e818cb8654757864d9eac46256c38c30385f58f6999aec418c2e2ae01",
          "blockNumber": "0x26f6eca",
          "blockTimestamp": "0x69693a77",
          "transactionHash": "0xa383b73bffc9c595ca8e726f28578a660cc1528f469050bd636fd5bd2497961e",
          "transactionIndex": "0xdb",
          "logIndex": "0x49a",
          "removed": false
        }
      ],
      "logsBloom": "0x00000000000000000000004000000000000000000000000000000000000000000000000000000000000200000000000000000000000000000000000000000000000000002000000000000000000000000000000000200000000000000000000000000000000000000000000000000000000000000000000000000000000000000000000000000000000000000000000000000000200000000000000000000000001000000000000000000000000000000000000000000000000000000000000000000000000000000000000000000000002008000000000000000000000000000000000000000000000000000000000000000000000000040000000000000000",
      "type": "0x2",
      "transactionHash": "0xa383b73bffc9c595ca8e726f28578a660cc1528f469050bd636fd5bd2497961e",
      "transactionIndex": "0xdb",
      "blockHash": "0xe2da638e818cb8654757864d9eac46256c38c30385f58f6999aec418c2e2ae01",
      "blockNumber": "0x26f6eca",
      "gasUsed": "0xdd2d",
      "effectiveGasPrice": "0x28bc8f",
      "blobGasUsed": "0x7ef4",
      "from": "0x6e0056fe681e087160bb40db0ae3419ee6c2ece4",
      "to": "0x1b048c7323c7c7fe910a5f0e08b36b0c715e8947",
      "contractAddress": null,
      "daFootprintGasScalar": "0x145",
      "l1BaseFeeScalar": "0x8dd",
      "l1BlobBaseFee": "0x6960af",
      "l1BlobBaseFeeScalar": "0x101c12",
      "l1Fee": "0x481924e8",
      "l1GasPrice": "0x7e38c82",
      "l1GasUsed": "0x640"
    }
  ],
  "libraries": [],
  "pending": [],
  "returns": {},
  "timestamp": 1768503925990,
  "chain": 8453,
  "commit": "836866e"
}