{
  "transactions": [
    {
      "hash": "0x0869f4b826eb6fc7655dd765e8b38cd2f76554d0f438c873868815b408902949",
      "transactionType": "CALL",
      "contractName": null,
      "contractAddress": "0x1b048c7323c7c7fe910a5f0e08b36b0c715e8947",
      "function": "addMatchManager(address)",
      "arguments": [
        "0x8676BDC7f5A252bF8BaA285c9Ec8a49eb2dcE5BB"
      ],
      "transaction": {
        "from": "0x6e0056fe681e087160bb40db0ae3419ee6c2ece4",
        "to": "0x1b048c7323c7c7fe910a5f0e08b36b0c715e8947",
        "gas": "0x1191e",
        "value": "0x0",
        "input": "0x351966430000000000000000000000008676bdc7f5a252bf8baa285c9ec8a49eb2dce5bb",
        "nonce": "0x6",
        "chainId": "0x2105"
      },
      "additionalContracts": [],
      "isFixedGasLimit": false
    }
  ],
  "receipts": [
    {
      "status": "0x1",
      "cumulativeGasUsed": "0x11362e0",
      "logs": [
        {
          "address": "0x1b048c7323c7c7fe910a5f0e08b36b0c715e8947",
          "topics": [
            "0xe0c52d7f0c078c5aa9cb59be65faf07cdc535b2e3b34cb6c1ae7b5d7af07c1f9",
            "0x0000000000000000000000008676bdc7f5a252bf8baa285c9ec8a49eb2dce5bb"
          ],
          "data": "0x",
          "blockHash": "0x79f2fc1d22fcd9541ba5e5a4253daac779cfa29e1bfc6502a2f29f3806af089f",
          "blockNumber": "0x26aca08",
          "blockTimestamp": "0x695ff0f3",
          "transactionHash": "0x0869f4b826eb6fc7655dd765e8b38cd2f76554d0f438c873868815b408902949",
          "transactionIndex": "0x56",
          "logIndex": "0x19b",
          "removed": false
        }
      ],
      "logsBloom": "0x00000000000000008000000000000000000080000000000000800000000000000000000000000000000200000000000000000000000000000000000000000000000000003000000000000000000000000000000000200000000000000000000000000000000000000000000000000000000000000000000000000000000000000000000000000000000000000000000000000000000000000000000000000020000000000000000000000000000000000000000000000000000000000000000000000000001000000000000000000000000000000000000000000000000000000000000000000000000000000000000000000000000000000000000000000000",
      "type": "0x2",
      "transactionHash": "0x0869f4b826eb6fc7655dd765e8b38cd2f76554d0f438c873868815b408902949",
      "transactionIndex": "0x56",
      "blockHash": "0x79f2fc1d22fcd9541ba5e5a4253daac779cfa29e1bfc6502a2f29f3806af089f",
      "blockNumber": "0x26aca08",
      "gasUsed": "0xcb87",
      "effectiveGasPrice": "0x3d78de",
      "blobGasUsed": "0x7ef4",
      "from": "0x6e0056fe681e087160bb40db0ae3419ee6c2ece4",
      "to": "0x1b048c7323c7c7fe910a5f0e08b36b0c715e8947",
      "contractAddress": null,
      "daFootprintGasScalar": "0x145",
      "l1BaseFeeScalar": "0x8dd",
      "l1BlobBaseFee": "0x90f6b4",
      "l1BlobBaseFeeScalar": "0x101c12",
      "l1Fee": "0x5cb4274b",
      "l1GasPrice": "0x9115a46",
      "l1GasUsed": "0x640"
    }
  ],
  "libraries": [],
  "pending": [],
  "returns": {},
  "timestamp": 1767895282851,
  "chain": 8453,
  "commit": "0511460"
}